:100000000C9478000C9400000C9400000C940000F8
:100010000C9400000C94A5000C9400000C940000BB
:100020000C9400000C9400000C9400000C94000050
:100030000C9400000C9400000C9400000C94000040
:100040000C9400000C9400000C9400000C94000030
:100050000C9400001027E80364000A00010000105F
:100060000001100001000000004C253032643A25E8
:100070003032643A25303264202020202020202590
:100080006300616C61726D3D253032643A25303217
:1000900064006D7574650020202020007365742055
:1000A00074696D653A0073657420616C61726D3AB4
:1000B00000253032643A2530326420202020202070
:1000C000202020202563000080C00400040066007A
:1000D0000500600292000500650297000A006A02AE
:1000E0009C000B007402A60002009F02C8000000E2
:1000F000F894EE27ECBBF1E0FBBFEBBFE5BF8DE072
:10010000A2E0BB27ED938A95E9F780E098E0A0E6AE
:10011000ED930197E9F7EAECF0E08591959100976E
:1001200061F0A591B59105901590BF01F001059082
:100130000D920197E1F7FB01F0CFEFE5EDBFE8E0AD
:10014000EEBFC0E6D2E00C9438010A921A928A936C
:100150009A93AA93BA93EA93FA93EFB7EA930E9419
:10016000170531960E94E5050E941705FC973CF0A3
:100170000E941C0531960E94E505442455240E94E6
:100180001C05FC972CF00E94210531960E94E50584
:100190000E9421057897A1E0B0E00E94D905EE23E6
:1001A00022F00E941705FC9724F0A0E0B0E00E9426
:1001B0002605A3E0B0E00E94D905EE2322F00E94BC
:1001C0001C05FC9724F0A2E0B0E00E942605A5E003
:1001D000B0E00E94D905EE2322F00E942105789715
:1001E00024F0A4E0B0E00E942605A7E0B0E00E9461
:1001F000D905EE2322F00E942B05FC9724F0A6E0FF
:10020000B0E00E942605A9E0B0E00E94D905EE23E7
:1002100022F00E943005789724F0A8E0B0E00E9418
:1002200026050E942B050F010E941C05E015F10513
:1002300061F40E9430050F010E942105E015F105CF
:1002400021F400240414050409F006C0969B02C0A2
:10025000969801C0969A01C09698E991EFBFF991DE
:10026000E991B991A991999189911990099018955D
:10027000E0E0E7BBEFEFE8BB8E9A9698E8E0E2BDDE
:10028000E5E0E5BDE0E0E4BDE3BDE0E4E9BFA0E119
:100290000E942A0378940E9435050E943A050E9424
:1002A0003F050E9444050E941C050E9444050E94CF
:1002B00017050E9444050E9449050E945705E2E87F
:1002C000F0E00E945D050E9444050E942B050E94FB
:1002D000440588E00E94CA042C960E946005ECE068
:1002E000EA93A1E00E94EB02E1E0F0E0E415F505FD
:1002F00019F4A0E6B2E002C0A5E6B2E00E9419033C
:10030000AAE0B0E00E94B10500240414050429F419
:10031000B19B02C0B29901C001C003C0E1E0F0E0AE
:100320002F01B09936C1F8940E94F802B09BFECF1D
:100330000E946405E8E47E2E0E943505AAE6B2E03C
:100340000E941903B09B32C00E9457050E943F05CE
:100350000E9444050E941C050E9444050E94170546
:100360000E9444050E9449050E946805B1990DC08C
:100370000E94210577972CF40E94210531960E9456
:10038000E505B19BFECF0E946405B2990EC00E94A4
:1003900021050E94FE052CF40E94210531970E9440
:1003A000E505B29BFECF0E946405CCCFB09BFECF8B
:1003B0000E946405EDE47E2EB09B32C00E9457057A
:1003C0000E943F050E9444050E941C050E944405AE
:1003D0000E9417050E9444050E9449050E94680575
:1003E000B1990DC00E941C05FA972CF40E941C05BF
:1003F00031960E94E505B19BFECF0E946405B2993B
:100400000EC00E941C050E94FE052CF40E941C05D3
:1004100031970E94E505B29BFECF0E946405CCCFC8
:10042000B09BFECF0E946405E3E57E2EB09B32C0F8
:100430000E9457050E943F050E9444050E941C052A
:100440000E9444050E9417050E9444050E94490528
:100450000E946805B1990DC00E941705FA972CF407
:100460000E94170531960E94E505B19BFECF0E94C0
:100470006405B2990EC00E9417050E94FE052CF477
:100480000E94170531970E94E505B29BFECF0E949E
:100490006405CCCFB09BFECF0E9464057894E8E45D
:1004A0007E2E0E943505A4E7B2E0C3D0B09B30C0D9
:1004B0000E945705E1EBF0E00E945D050E944405B3
:1004C0000E942B050E9444050E946C050E9468054D
:1004D000B1990DC00E94300577972CF40E94300529
:1004E00031960E94E505B19BFECF0E946405B2994A
:1004F0000EC00E9430050E94FE052CF40E943005BB
:1005000031970E94E505B29BFECF0E946405CECFD5
:10051000B09BFECF0E946405EDE47E2EB09B30C000
:100520000E945705E1EBF0E00E945D050E94440542
:100530000E942B050E9444050E946C050E946805DC
:10054000B1990DC00E942B05FA972CF40E942B053F
:1005500031960E94E505B19BFECF0E946405B299D9
:100560000EC00E942B050E94FE052CF40E942B0554
:1005700031970E94E505B29BFECF0E946405CECF65
:10058000B09BFECF0E946405ECE47E2E44245524EB
:100590002FD081CEFFCFAA93EBB3EF70AE2FE881BF
:1005A000E07FEA2BEBBB8DE08A95F1F7DA9A8DE0DC
:1005B0008A95F1F7DA988DE08A95F1F775C0AA93DC
:1005C000A881E9DFE881E295E883A881E4DF85E896
:1005D0008A95F1F769C0AA93E881F0E0E156FD4FF2
:1005E000E081A981AE0FEBDF6980988022960895A3
:1005F000A2E00E947705ACE0E2DFA1E00E9477056F
:10060000E0E09E2E6E2E0895AA93A881AA3011F0E4
:10061000681448F0E0E0EA939394A92DDCDFA88108
:10062000AA3009F441C06394D89AA881C8DFD89849
:100630003BC0BA93AA931A93A981BA81ED91A98379
:10064000BA831E2FE03019F0A12FDEDFF5CF18811D
:1006500023960895AA93EAB3E06FEABBD29AD09AA0
:10066000D19ADA98D898D9988880E881E058E093B0
:10067000A102E881E054E093A2020E9468050E9472
:100680007D050E947D050E947D05A0E284DF88EC47
:1006900090E00197F1F7A8E292DFA4E090DFA5E8EF
:1006A0008EDFA6E08CDFA4DF21960895BA93AA938B
:1006B0001A930A93AA81BB8112960E94C8053097AB
:1006C00059F1AA81BB8114960E94C8058F01309709
:1006D00061F00230E0E01E0798F0F80131978F01D9
:1006E000AA81BB811496ED93FC93AA81BB811296DB
:1006F000ED91FD913196FE93EE933197AC81A083FD
:10070000AA81BB810E94C805FF232AF0ED91FD91CB
:100710003196FE93EE9306C0AA81BB81EFEFFFEF07
:10072000ED93FC931981088125960895BA93AA93B5
:1007300026970E94020610E0AC85BD85E0E0F0E05F
:10074000ED93FC93EA89FB893196EA8BFB8B319719
:10075000E4912E2FE03009F415C1E12FE03039F497
:10076000253211F411E002C00E9485050AC1E13072
:10077000A9F4253219F40E94850502C112E040E077
:1007800000E02D3211F401E0FCC02B3211F44BE2F9
:10079000F8C0203211F440E2F4C002C0E23039F473
:1007A00050E013E0203311F40068EBC003C0E330E5
:1007B00009F0E7C0203310F02A3308F007C0AAE0A0
:1007C0005A9F502DE22FE0535E0FDBC0E22FE3363D
:1007D00049F40E948C05E889F989A481AA930E94B2
:1007E0009205CEC0E33741F40E948C050E94980523
:1007F0000E94FE041E2F0AC0E03761F40E948C059F
:100800000E9498050E940A051E2F086002600F775B
:1008100030E034C0E43611F0E93611F4046002C06F
:10082000E53731F4E4E5F0E0EE83FF8315E00CC03A
:10083000E83511F4086003C0E83709F0A1C0EEE51F
:10084000F0E0EE83FF8314E002FF14C00E948C05E9
:100850000E94A205AB85AA233AF4EA85FB850E9493
:10086000BF05EA87FB874DE2403011F01F5F01C0F2
:100870000B7F04C00E948C050E94A20500FD11C0E0
:10088000151778F407FF08C002FF04C00B7F242F60
:10089000115001C020E301C020E20E9485055150A3
:1008A000EFCF312F01FF17C03030A1F003FF06C09A
:1008B000EE81FF812591EE83FF8305C0AE81BF816C
:1008C0002D91AE83BF830E948505503009F05150B1
:1008D0003150EACF4BC020E3EE81FF810E94CC056E
:1008E000E887F987EE81FF813296EE83FF83E88502
:1008F000F985AA85BB85AE17BF0750F02F5FA88585
:10090000B985EA85FB85EA1BFB0BEA87FB87EFCFFE
:100910002A3328F003FF02C0295F01C0295D04FDCE
:100920001AC0213320F4A885B985119709F409C0AC
:10093000531710F000FF01C013C020E207FF0BC0E7
:1009400020E3006102FF07C00B7F4A930E949205DB
:10095000503009F051500E948505503009F0515037
:100960003150A885B985129708F0B5CF00FF08C0AF
:10097000503031F05150E0E2EA930E949205F8CFF6
:1009800010E0E0CEAC85BD850E94C8050E94090636
:1009900064960895FF92F82E26970E9404060E94FE
:1009A000AA05309719F4EFEFFFEF23C0DE0116968A
:1009B0000E94BB058D010E94AA05EE83FF83E0E043
:1009C000E887E987DE011A960E94BB050E94C805E8
:1009D000FA93EA931A930A93E6E5F3E0FA93EA931B
:1009E000DE011A96A3DE9F01AE81BF81E0E0EC93A9
:1009F000F9010E940B062A96FF900895BA93AA93D4
:100A0000A991B991EE27FF276D91662311F03196D8
:100A1000FBCF0895BA93AA93AA27BB27E991F9912E
:100A20000590002011F01196FBCFFD010895A0E084
:100A3000B0E00E94D5050895A2E0B0E00E94D5057F
:100A40000895A4E0B0E00E94D5050895E0E0F0E04C
:100A50000E94E5050895A6E0B0E00E94D50508953E
:100A6000A8E0B0E00E94D5050895E0E0EA93A0E098
:100A70000C94EB02EFE7F2E0FA93EA930895EAE6CA
:100A8000F0E0FA93EA93DDCF0E94C3050E94D005FF
:100A90000895E72DFF27662777270E94D00580E17C
:100AA0000E94CA046496AFE7B2E00C941903E0E038
:100AB000EA93A1E00E94EB02DDCFFA93EA93D0CF54
:100AC000AFE7B2E00C941903A2E3B0E00C94B105D7
:100AD000A4E1B0E00C94B105E72DFF276627772746
:100AE0000E94D0058CE00E94CA046096E9CF0E9463
:100AF000DF02A3E0B0E00C94B105A0E30E94CB02BA
:100B000088EC90E00197F1F708952A93AD85BE85B2
:100B1000EF85F88909950895E889F9893497E88B74
:100B2000F98B0895AD85BE85EF85F88909950895FF
:100B3000A889B98914960E94C805EE83FF83AE8107
:100B4000BF810895A889B98914960E94C805EA87CB
:100B5000FB870895DE011C960E94BB050E94C80514
:100B60000895109639F080ED97E00197F1F7A89578
:100B70001197C9F708950024AF0DB01D0895F195A0
:100B8000E195F04008956F2F660F660B762F08955C
:100B9000ED91FC91119708950590F491E02D089541
:100BA0007A936A93FA93EA930895119602D0FE2FEE
:100BB0001197E199FECFFF93FFB7F894AEBBBFBB8F
:100BC000E09AEDB3FFBFFF91089507D01196EF9320
:100BD000EF2F03D0EF9111970895E19B02C0A895E4
:100BE000FCCF9FB7F894AEBBBFBBE09A8DB3E817BC
:100BF00019F0EDBBE29AE19A9FBF089500240E160A
:100C00000F0608955A934A933A932A931A930A9394
:100C100008955D814C813B812A8119810881089565
:00000001FF
